:400000000010002011000000B5030000B503000008B500F081FA00F0CFF90000F7B572B680220021D200554800F0EDFF802200215348D20000F0E7FF0023191C514C1859E1
:400040001034C2B20192071CFF2297434A00A4180022019ED5B2AE4209D05500665D6519B446BC446D78664635700132F1E7C0B204330918102BE1D1434BC02292041A60F8
:40008000424B99221A60424A00231360414A80211160414AC9031160404A40211160404AC021490311603F4A312113603E4B02221A603E4B802019603D4B3E491A60992317
:4000C0001B040B603C49000608603C493C200B603B4B8021890519603A493B4B19603B4B19780A431A703A4A117881431420014311701A7816210A431A70364A8023116893
:40010000DB020B431360344B141C1878334BC0B21978334BC9B21A78172A05D9314A58789978033B9342F6D12F4B192218602F4B052019602E4B1A6000F05EFD2D4B052061
:400140001A782D4BD2B21A6000F09EFE22682B4B134023602A4A2B4B1A602B4B10221A602A4B20221A602A4B802212061A60294A294B1A60294A2A4B1A60F7BD00300F40BF
:4001800000400F402410000004000140100001400C000140000004400800044000010440080104400803044000040440080404401804044000500F4004500F4010500F403F
:4001C00018500F40100001002001054000700F4001700F4000010B40CCF1FF0FCDF1FF0FC9F1FF0FBDF1FF0F1CFF0B4020FF0B402CFF0B40E5F1FF0F28FF0B40FFFFFBFF57
:400200000600008004010B40080202402002024008010B401000008000000240AF0400804000024010B5064C2378002B07D1054B002B02D0044800E000BF0123237010BDEC
:40024000F0000020000000002010000008B5084B002B03D00748084900E000BF07480368002B03D0064B002B00D0984708BDC0460000000020100000F4000020D00000200F
:400280000000000010B562B600F0ACFC00280ED16524012000F0E2FD00F0A4FC002806D1013CE4B2002CF4D1034B40221A6000F08BFC00F0DBFAFEE7C000002008B500F01E
:4002C00015FB00F04DFB00F0B5FB08BD70B5054B0D1C161C0024C9B21C8000F09FFB3580201C70BD0C010020F0B50A275F4387B003900591151C00262D4CBE4219DA00F0E6
:400300001DFB80B220802388002B0CD00220268800F0A4FD00F012FB80B220802388B6B2B342F3D807E00120013600F097FDB6B2E2E7052600E0002600272F802388002B4D
:4003400033D023889BB2019301992B885A18059992B22A808A4221D2019ABB189BB2029302998F4209D07B1C9BB20493039BDF1900F0CAFA3870049FF2E772B62388019AF8
:400380009B1A9BB2238062B6039A5318013B1B78172B08D0052000F061FD04E02B8000F0DFFA052601E0029FC8E7301C07B0F0BD0C010020FEE7000070B51048104B013895
:4003C000421C15D01E685C689D680022A118AA4203D0B158A1500432F8E7DA680D1C4C1B944202D0002410C1F9E710330138E7E700F0DAFDFFF746FFFEE7C046010000003B
:400400007410000008B500239A00032B02D80D49895800E00C490D4801338150302BF3D1FFF7FCFD0A4B00221A600A4B1A68002A00D11A608023DB051A6801210A431A60B7
:4004400008BDC04600000000B503000000000020C8000020C0000020004770B5051C0E1C141C002802D0002000F0EAFC0020002C05D0013CAA19125D8318D8B2F7E770BD7A
:40048000013808B509282AD8C901494200F078FD0507090B0D0F1614181B154B08E0154B12E0154B0DE0154B0EE0154B00E0154BC9180878C0B21AE0134B02E0134B00E0A0
:4004C000134BC9180FE0134BC9180B7848788A780002120410431843CB781B0606E0002000F0AEFC00210B7848780002184308BDC07F0000C17F0000C57F0000C97F0000EF
:40050000D07F0000D17F0000D67F0000D27F0000D47F0000D87F00000C4B10B51A6810231A400B4B00D11A601A68802A0DD100240220211C1C60FFF7A3FFA04205D0211C6B
:400540000220FFF79DFFFFF787FF10BD00030B40C0000020F8B5051C291C0320FFF790FF291C041C0420FFF78BFF671CFF013F18291C0320FFF784FF00240130C001261C79
:40058000B84209D203785A1ED2B2FD2A00D801261C19E4B20130F3E70120291CFFF770FF6442E4B20623844203D17242564176423340181CF8BD0000F0B5A44CA544FFF756
:4005C0007DFE62B600260096002506AC03AE9621201C4900321CFF23FFF786FE0028F4D13188062900D88AE022780423012A54D1E778A2783F021743E2195679B44616796F
:400600000196FE1D8E427FD89279172A45D1FB189BB2002B08D09CA98D4ECA1892191278013B801880B2F3E7019B614640420A0280B21A43082382422FD167E0342B00D040
:400640009DE0009901295AD1032F58D151A80021802200F0D8FC802551A948192639ED19FA1EFF39ADB200F0C5FC832D49D1A079637900021843774B36021B6880191A68BB
:4006800080B2D3099BB2560601D001339BB298427BD20127009700250A2300210120207068466A46437681766B4600200E32D8760B1D11809BB29CAFFE18654F013BF61954
:4006C00036789BB2801980B2002BF4D19CAE624F7318DE194042614F80B23070DE19000A30705F4807311B181720187089B2201C9623FFF7EBFD68E7009E012E1BD0042315
:40070000CBE70126009600250323C6E763782679181C31380A2801D90523BEE700F03AFCECFF1400FCFF8EFF3F00FCFF430054008EFF63008B00002FE1D1381CFFF70AFF35
:4007400043424341237173E000980128D7D1012FD5D1002ED3D13F4B1B681B68DA0BD2B2DB09DBB2002A01D080235B0023711B0A6371FF23A3710023E37104218EE7009BA6
:40078000012BBCD1022FBAD966E751A900F048FA002800D07DE701260096051C12E0009F012FACD110E7009E012EA8D19623EE195B009E42A8D851A948193A1C07A900F0C2
:4007C00019FCB5B2002368E7002F98D104AB254A191C41CA41C107AA41CB41C2012600963B1C08215AE70098012888D1032F86D1A37962791B021A43310251180192C901C8
:4008000000208022FFF729FE071C002E0ED10199FF290BD1311C0520FFF732FE311C3F1A0620FFF72DFEFFB23F1AFFB27F4227710023012132E70020FFF78CFE002802D179
:40084000094B80221A6000F0FDFA58E78CFDFFFFA7FDFFFFD4000020ACFDFFFFADFDFFFFAEFDFFFF48100000C000002038B50020FFF770FE0025A84200D00625124C00209C
:400880002368C0211A68C03AFFF7E7FD62681378181AC0B2984203D123681B68002B02D1002000F0CDFA094B19681A1C402901D0002D03D000231360FFF77EFE80221A6083
:4008C00000F0C0FA38BDC046D4000020C000002008B5054B8022196812060A431A600A2000F09AFA08BDC0460000064010B5054C2378002B03D100F0BFF801232370FFF7AD
:40090000E7FF10BD10010020094B0A4A1968136899420BD011684B1C4039481E814149420B400549C85C1360C0B200E000207047B0010020280100206C010020064B074ACB
:400940001B6811688B4202D31068181A02E012684133981A7047C046B0010020280100200C4A0D4B002130B5106811601D68802464022C431C601D68084C2C401C60084BAB
:400980001C68084B1C60084B19700849084B1960106030BDC80F064004030640FFFFFEFF28010020B0010020AD010020ED0F0000C00F0640124910B50A68531C3F3A541E44
:4009C000A241524213400F4A1468A342FBD00C681268944208D10C4A14680F222240082A02D00A4B18600AE0094C02222260094CC0B2E0540B60084B19680A431A6010BD22
:400A000024010020200100200802064040020640800F06402C010020880F064038B5041C4518AC4204D02078FFF7C4FF0134F8E738BD00000B4A0023116810B513600A4B55
:400A400080201C684002204318601C68074820401860074B1868074B186002239943116010BDC046880F064004020640FFFFFEFF20010020240100201D4A1E4B10B51A60F0
:400A80001D4B00241C601D4B01221A601C491D4B07200B601C4908601C490A200C601C490A601C4A13601C4B1C6000F0BFF90A20032100F091F919490A2000F081F9184BAE
:400AC00004221C60174B1C60174B1C60174B1C60174B1A60174B1C60174B1C60174B1C60174B1C70174B1C60174B1C6010BDC0460B00000200000640400006404800064060
:400B0000000306400700008004030640100306404400064000020640040206409D0E0000880E0640C80E0640480F0640080F0640C80F0640880F0640B00100202801002070
:400B4000AD01002024010020200100200E4B8422D2041A601968802252020A431A600B490B4A0A60196819600A4BC32189001960094B00211960094B1C211960084B1A6087
:400B8000084A094B1A60704700010540080105401027000024010540380105402801054014010540881300000C01054008B500F02DF8044B01211A680A431A6000F02AF858
:400BC00008BDC0460000054010B5054C2378002B03D1FFF7BBFF01232370FFF7E7FF10BD18010020024B18680006C00F7047C04604000440000000000230800804D0C046B1
:400C00000138FDD1C046C046C0467047EFF3108072B6704780F310887047C046C046C046F0B50024CBB0069404900794FF2800D9A4E0A14200D1A1E008AD8022281C00F06E
:400C4000D9F9231C211C221C029498002858002802D01218014302930133202BF5D1002A05D1002900D08EE00191039102E0002001900390484F7F2328AE291C80222AA87D
:400C80002897464C736000F0B5F9454A454B266013602168090F0A2903D022680F23134000E000230693069F002F69D1FFF7AEFF3D4A3E4B116807971960069B0590002B56
:400CC00014D13B4A04982892289A01040A43289228AA22603249374A0A602268120F0A2A03D02E4B1A680F2313400693069F002F38D1019A002A35D0391C8022281C00F00F
:400D000082F90298039A08A983005A50224B2AA8289380227F23736000F06CF9214820492660086023681B0F0A2B03D01B4B1F680F231F400697069B002B13D11E4A049871
:400D40002892289A01040A43289215491B4A26600A602268120F0A2A03D0104B1A680F2313400693079B002B04D1104A0E481268026007930598FFF74DFF01E00423069343
:400D800006984BB0F0BD02998B00E85801210390EA5001916EE7C046B6D7000008000040040000400400008008010B401C010020B6D8000005000080B6D900000600008055
:400DC0001F2800D901BE034A80008318186819607047C0464000002038B5041C0D1E032D00D901BE1F2C00D901BEFFF70FFFA308084A9B009B18032214409440196806345C
:400E0000A2409143A5400C1C2C431C60FFF702FF38BDC04600E400E01F23184001238340181C014B1860704700E100E01F23184001238340181C014B1860704780E100E0EC
:400E400001BE7047034B04491A6892B20A431A607047C0460CED00E00400FA0510B5041C8022074B1202944205D91868FFF7C4FE044BE418F4E758686043FFF7BDFE10BD5B
:400E8000DC0000200080FFFF08B5034B1B7A5843FFF7B2FE08BDC046DC000020274B10B51B68002B00D09847254B1B685A071DD5244B1B681A0716D0234B244A1868116868
:400EC0004B1C40394C1EA14149420B40204909688B4203D11F4B20221A70E9E71E49C0B2C8541360E4E71D4B04221A601C4B1B689A0721D51B4B1A680F231340082B18D02B
:400F0000194B1A4A1968136899420DD011684B1C3F39481E814149420B401549C85C1549C0B208601360E5E7134B02211A688A431A60124B02221A6010BDC0461401002099
:400F4000CC0F06400803064040030640B001002028010020AD0100206C010020C00F06408C0F06400802064024010020200100202C01002040020640880F0640800F0640AE
:400F800002B4714649084900095C49008E4402BC7047C04603B47146490840004900095E49008E4403BC704770B50E4B0E4D0024ED1AAD101E1CAC4204D0A300F358984765
:400FC0000134F8E700F044F8084B094D0024ED1AAD101E1CAC4204D0A300F35898470134F8E770BD5C1000005C1000005C1000006410000010B50023934203D0CC5CC4548E
:401000000133F9E710BD031C8218934202D019700133FAE770470000A8100000EE0000000000000001330F4003410F4004430F4002600F40E61062048E04D84018808C40AD
:40104000C608E608020111019311C804111E0101F8B5C046F8BC08BC9E4670474D02000005040000F8B5C046F8BC08BC9E4670472502000088100000D0000020200000004B
:40108000C80000000000000000000000181000001C1000000000E02EC05D00001800000000366E01000000000000000000000000000000000000000000000000000000002C
:4010C00000000000000000000000000000000000000000000000000000000000000000000000000000000000000000000000000000000000000000000000000000000000F0
:401100000010002011110000551900005519000008B5024B83F3088800F036FC0010002038B5254C23688022D20213432360182000F07CFD2268214B13402360204A214BA4
:401140001A602022204B1A600132204B1A6010231F4A13601F4A13601F4A136030221F4B1A600E3A1E4B1A60113A1E4B1A60822212061D4B1A6000252560802212061B4BF8
:401180001A601B4A1B4B1A601B4B1C4A13601C491C4A11601C491D4A11601D4A13601D4A1D4B1A6009201D4900F0FEFC092000F0EFFC1B4B1D6038BD00010B40FFFFFBFFFC
:4011C0000600008004010B401C0202402002024024020240280202402C02024034020240380202403C02024008010B40000002401600008040000240760100808000024036
:401200007F3E008004000240BF5D008044000240080002403F0100C0480002403D1E00000C020B4038B572B60122464B1A70002410E0454863001A195200821891881B19BE
:401240005B001A5AC31858880004104300F010FC0134E4B2022CECD9002412E03A4DA3001A195200AA18918AD08A00040843131C128B598B09041143802200F0FFFB0134B6
:40128000E4B2002CEAD03049081C2030483100F0CBFB2E4A2E4B1A60C02292042D4B1A602D4A2E4B1A6099231B042D4A1360F22149042C4A11602C4A13602C4A13608A21CE
:4012C000C9052B4A11602B4A1360802252022A4B1A602A4A2A4B1A600D222A4B1A600C20294B1860294B19780B3A0A431A70284C22783C218A4328390A4322701978162272
:401300000A431A703D22234B1A60234A234B1A60234B18609022D200224B1A604B22224B1A60224A224B1A600322224B1A60023A214B1A60214A224B1A60FFF7F1FE00F0ED
:401340008DFB38BD1C700F40C049000003330300000001400800014003EE00000C00014000500F4008500F4010500F4020500F4028500F4030500F4038500F40E0000F00FB
:40138000200105402000004000800F4000700F4001700F4000000440B56D030008000440000104400801044000020440000418000802044018020440000304408E0D0000E2
:4013C0000803044010B5064C2378002B07D1054B002B02D0044800E000BF0123237010BDA0030020000000004449000008B5084B002B03D00748084900E000BF07480368D6
:40140000002B00D108BD064B002BFBD09847F9E70000000044490000A4030020D00000200000000008B50D4B1A885B88D31A9BB2012B0BD9022B04D91901CB1A08490B70E8
:4014400007E099005B1806490B7002E00121044B1970024B5A8001F065F908BDBC030020D400002010B5041C002000F039FD201C00F092FE00F084FEC307FBD510BDC046FF
:4014800010B5041C012000F02BFD201C203843001B185B0005480430C018062100F088FE00F06EFEC307FBD510BDC046D400002038B5051C002404E0285DFFF7E1FF013450
:4014C000E4B2281C02F058FE8442F5D338BDC04610B553280AD8052908D88038C0B24031CCB2FFF7BFFF201CFFF7BCFF10BDC04610B5002404E02020FFF7C2FF0134E4B2F5
:40150000532CF8D900200021FFF7E2FF10BDC04608B50D2807D8052905D84300C0184300D8B2FFF7D5FF08BD00B585B04423244AD05E02F00FFC234A234B01F0C1FD234A3C
:40154000234B02F057F802F0CFFB82B2214B9B8811B28B4200DD9AB212B202A81E4902F0E9FD4623164AD25E68461C4902F0E2FD08200221FFF7CCFF02A8FFF799FF042092
:401580000321FFF7C5FF6846FFF792FF05200521FFF7BEFF0F4B9B79002B03D11048FFF787FF0AE0012B03D10E48FFF781FF04E0022B02D10C48FFF77BFF05B000BDC04603
:4015C000D40200208B6CE7FBA9F1F03F6DE7FBA9F1D21D40BC03002050490000584900005C490000684900007449000010B5064CA0790130032101F011FAA171FFF794FFF3
:4016000000F078FF10BDC046BC03002008B51248FFF74EFF00200121FFF77AFF0F48FFF747FF00200221FFF773FF0D48FFF740FF00200321FFF76CFF0A48FFF739FF002079
:401640000521FFF765FF0848FFF732FF0748FFF72FFFFFF769FF08BD804900008C49000098490000A4490000AC4900005C49000008B53C2000F078FA012000F03DFC3C20B6
:4016800000F072FA002000F037FC3C2000F06CFA012000F031FC2120FFF7E4FEB820FFF7E1FE4020FFF7DEFE1420FFF7DBFE2020FFF7D8FE0C20FFF7D5FEFFF719FFFFF79B
:4016C000A5FF08BD10B51D4800F028FD1C4800F003FF1C4800F0BAFF1B4801F015F800F0A9FDFFF7C5FF00F075FC184C4623E25E32235343D817800DC318981200F018FCD0
:4017000000F022FA4823E05E00F0CCF900F0D4FC4423E05E00F07EFC00F076FE00F084FE022000F087FE00F05BFF0120082100F013FF00F0B5FF62B6FEE7C046511700005E
:40174000ED1500004D18000025140000D402002070B584B0012000F081FE02F0FBFA244A244B01F0ADFC244A244B01F043FF244D01F060F9A880002000F070FE02F0EAFA45
:40178000204A214B01F09CFC1B4A204B01F070F901F050F984B22C81201CFA21890000F0C7FF86B2201C0A2100F0C2FF80B2642101F044F88BB202A81549321C02F0BAFC7E
:4017C000AA886846134902F0B5FC08200021FFF79FFE02A8FFF76CFE08200121FFF798FE6846FFF765FE00F0A7FC04B070BDC046DBF97E6ABC74F13FC3F5285C8FC21B40C9
:40180000BC030020F6285C8FC23528408F423240B44900005049000010B50A4C4823E05E00F040F94423E05E00F0F4FB4623E05E8302181A642101F00BF8034B181A00F0D0
:4018400077FB10BDD4020020FF03000010B500F05FFE041C4A233B4AD35AC31ADBB25AB2002A05DD384A138801331380012307E05AB2002A04DA344A138801331380FF2359
:40188000324A12785343DBB22F4A9279002A02D0012A07D00DE02B4848215BB2425A9B1843520CE0274844215BB2425A9B18435205E0244846215BB2425A9B1843524823FE
:4018C000204AD25E224B9A4203DD191C48231D4AD15244231B4AD25E1D4B9A4203DD191C4423184AD1524623164AD35E642B03DD64214623134AD1524823124AD35E002BC0
:4019000003DA002148230F4AD15244230D4AD35E002B03DA002144230A4AD1524623094AD35E002B03DA00214623064AD152FFF773FFFFF7F9FD4A23024AD45200F094FE25
:4019400010BDC046D4020020BC030020D4000020FF030000FEE7C04608B5031C084A1068C318084A9A1A802A02DC054A136005E002F0A2FB0C2303600120404208BDC04699
:40198000200300200804002070B50F4E0F4D13E029686B68AC68002202E001C901C30432A242FAD1E868002202E0002102C304328242FAD11035013E002EE9D102F082FB1E
:4019C000FFF780FEFEE7C04601000000484D000008B500230AE0032B03D89A000D49505800E00D4899000D4A885001332F2BF2D9FFF718FC00220A4B1A600A4B1B68002B33
:401A000001D1084B1A608022D205116801230B43136008BD001100005519000000000020C8000020C0000020F0B50025002711E0BB00C658F3B2FF22964308E06A008A18B6
:401A40001478A419527822700135013BDBB2002BF4D10137092FEBD9F0BDC0460323024A1360024A1360704700031A4040031A4008B50A1C002102F054FB08BD08B502F0DD
:401A800047FB08BD0004000C014B18607047C046C80105400004000C014B18607047C046D40105400004000C014B18607047C046CC01054038B5041C0D1C00F05FF8AC40C9
:401AC000024B1C6000F05EF838BDC0460800054008B500F053F8064A116808230B43136000F050F808201821FFF7E4FF08BDC04600000540014B18607047C046F8010540A1
:401B000010B50E4C8023DB042360236823600020FFF7B8FF236823600C22094B1A600120FFF7E8FF3122074B1A608020C000FFF7B1FF0020FFF7B6FF10BDC046C0010540D5
:401B4000E4010540E801054008B5064B1B78002B04D1FFF7D5FF0122024B1A70FFF7B8FF08BDC046C60300200230800804D0C0460138FDD1C046C046C0467047EFF3108071
:401B800072B6704780F310887047C046C046C0461F2318401E3B8340181C014B1860704700E100E001BE704738B5041C0D1C1F2802D90020FFF7F6FFA400034B9C466444F7
:401BC0002068256038BDC0464000002070B5041C0E1E032E02D90020FFF7E4FF1F2C02D90020FFF7DFFF03252540ED000635FFF7C5FFA408A400074B9C46644423680322A2
:401C0000AA409343AE40351C1D432560FFF7BAFF70BDC04600E400E008B5034B1B7A5843FFF7A2FF08BDC04624030020F0B557464E46C0B483B0041CFFF7A0FF0190E71E6E
:401C40002D2F74D83F4B1B78DBB2A34208D33E4B1B78DBB29A463D4B1B78DBB2994631E03B4B1B78DBB2A34208D33A4B1B78DBB29A46394B1B78DBB2994623E0374B1B78AB
:401C8000DBB2A34208D3364B1B78DBB29A46354B1B78DBB2994615E0334B1B78DBB2A34208D3324B1B78DBB29A46314B1B78DBB2994607E02F4B1B78DBB29A462E4B1B781F
:401CC000DBB299462D4BDE5D2F2E09D92A2C07D919222B4B1A600520FFF746FF192503E0274B1D683F231D40AE4206D2234BDA5D234B1A600520FFF737FF1F4B9C46644454
:401D00002378DBB21F4A13601F4B52461A601F4B4A461A600520FFF77FFFAE420AD9174BDA5D174B1A600520FFF71EFF02E00020FFF738FF0198FFF725FF03B00CBC914662
:401D40009A46F0BDC0F1FF0FC1F1FF0FC2F1FF0FC3F1FF0FC4F1FF0FC5F1FF0FC6F1FF0FC7F1FF0FC8F1FF0FC9F1FF0FCAF1FF0FCBF1FF0FCCF1FF0FCDF1FF0F704C00004D
:401D80002CFF0B4028FF0B401CFF0B4020FF0B40034B1868C0231B02184000D00120704700010B4008B5FFF7E9FE044A1368C02109020B431360FFF7E5FE08BD00010B4057
:401DC00010B5FFF7DBFE08490A68084B1A408024E40122430A600A6813408022120213430B60FFF7CFFE10BD00010B40FF3FFFFF70B5061CFFF7C2FE041CFFF7C9FF002830
:401E000003D0FFF7DDFF012500E000250848331C0340084A106808490840184310601368012D01D1FFF7BEFF201CFFF7ABFE70BD0404040010020B40FBFBFBFF10B5244BFF
:401E40001B685B0715D5234B1B685B070ED5224B9969042001401F4C22688A4322609A6982439A61DB68002B00D098470420FFF7BFFF174B1B685B0518D5164B1B685B0517
:401E800010D5154B99698022D2001140114802688A4302609969114A0A409A611B69002B00D098478020C000FFF7A2FF084B1B685B030CD5074B1B685B0304D5064B5B69F7
:401EC000002B00D098478020C002FFF791FF10BD10020B4034030020C8030020FFFBFFFF04490A68DF231A404001BF3B18401043086070470000044004490A68FD231A401F
:401F00004000FB3B1840104308607047000004400004000C014B18607047C046480105400004000C014B18607047C046540105400004000C014B18607047C0464C010540B0
:401F400038B5041C0D1CFFF719FEAC40024B1C60FFF718FE38BDC0460800054008B5FFF70DFE064A116802230B431360FFF70AFE02201821FFF7E4FF08BDC0460000054066
:401F8000014B18607047C0467801054010B50E4C8023DB042360236823600020FFF7B8FF236823600C22094B1A600120FFF7E8FF3122074B1A608020C000FFF7B1FF002096
:401FC000FFF7B6FF10BDC04640010540640105406801054008B5064B1B78002B04D1FFF7D5FF0122024B1A70FFF7B8FF08BDC046E40300200004000C014B18607047C04610
:40200000880105400004000C014B18607047C046940105400004000C014B18607047C0468C01054038B5041C0D1CFFF7A7FDAC40024B1C60FFF7A6FD38BDC046080005409E
:4020400008B5FFF79BFD064A116804230B431360FFF798FD04201821FFF7E4FF08BDC04600000540014B18607047C046B801054010B50E4C8023DB042360236823600020C2
:40208000FFF7B8FF236823600C22094B1A600120FFF7E8FF3122074B1A608020C000FFF7B1FF0020FFF7B6FF10BDC04680010540A4010540A801054008B5064B1B78002B3E
:4020C00004D1FFF7D5FF0122024B1A70FFF7B8FF08BDC046E5030020014B18647047C0460000002010B5041CFFF748FD044A1368C0218B43A4011C431460FFF743FD10BD0F
:4021000000E400E00122014B1A60704700E100E00122014B1A60704780E100E010B5041CFFF7F6FF201CFFF7D7FF0320FFF7DAFFFFF7E8FF10BDC0460122014B1A6070477F
:4021400080E200E008B5FFF719FD0A4A117820230B43137008490A7810231A43D2B20A70064A11780B43DBB21370FFF70BFD00F071F808BD92000F4093000F4091000F400C
:40218000014B1878C0B2704763000F40014B1878C0B2704761000F40034B1B785B07FBD5024B18707047C04663000F4042000F4070B5061C0C1C002506E0705DFFF7ECFFA3
:4021C0000135EDB2013CE4B2002CF6D170BDC04608B501E0094B1B78094B1B789B06F9D4FFF7CCFC074B197801220A431A701A7801218A431A70FFF7C5FC08BD52000F4074
:4022000061000F4092000F4008B50F22064B1A70FFF7DEFFFFF7B4FFFFF7B8FF0023034A1370034A137008BD82000F4083000F4081000F4008B5064B1B78002B04D1FFF789
:40224000E3FF0122024B1A70FFF77CFF08BDC046E6030020034A1368802109060B4313607047C0468000024010B50E200321FFF7ADFC0E204049FFF797FC03223F4B1A6066
:402280003F4B1B68002B01DA3E4900E03E493F4A13680B4313603E4A3E4B1A603E4A3F4B1A6000233E4A13603E4A3F490A603F490A603F4A13603F4A136001223E4B1A6099
:4022C00002213E4B19603E4908683E4B034013430B603D4B1A6000224BE03C4891000C58DC239B0123408018007A0343384803403848844661440B60E30708D52C48046853
:40230000802149020B1C93401B0C2343036093002E495B589B0708D526480468802149020B1C93401B0C234303609300274959588B0502D58020C00001E080204001CB05CE
:4023400004D45300002424495C5203E041085300214C1953214B43438021C9008C466344D917490DCB18DB121BB290001C4943500132012AB1D910BD8924000020001A407F
:4023800080031A40402E1013402E001300001A40F1000A8004001A400000FF0718001A401C001A400200020010001A4014001A4028021A4038021A4018021A40000F1A403C
:4023C00030001A40FFFFFFDF040F1A40A04C0000FFFDFFFF80001A40FC03002010270000F403002008B5074B1B68002B08DB054A1368802109060B4313600A20FFF70CFCDA
:4024000008BDC04600001A4008B5064B1B78002B04D1FFF729FF0122024B1A70FFF7E2FF08BDC046E70300200122014B1A60704724001A40021C83070CD0074B1B6801207A
:40244000184001D19307F8D4002804D00122024B1A6000E00020704710021A4010B5041E012C02D90020FFF79DFB012C07D8A400044B9C46644420680004000C00E0002005
:4024800000B210BD80011A40014B1A681A60704710021A40014BD8647047C0460000002010B5041CFFF76AFB044A13689B009B08A4071C431460FFF765FB10BD00E400E046
:4024C0000822014B1A60704700E100E00822014B1A60704780E100E010B5041CFFF7F6FF201CFFF7D7FF0320FFF7DAFFFFF7E8FF10BDC0460822014B1A60704780E200E029
:402500000004000C014B18607047C04608010540024B18680004000C7047C0460801054010B5041CFFF72AFB054B1968054A0A401A601A6814431C60FFF724FB10BDC046B3
:4025400000010540FFFFFCFF0004000C014B18607047C0461401054038B5041C0D1CFFF70DFBAC40024B1C60FFF70CFB38BDC0460800054008B5FFF701FB064A1168012367
:402580000B431360FFF7FEFA01200821FFF7E4FF08BDC04600000540014B18607047C0463801054010B5C02292040B4B1A60C32292000A4B1A600220FFF7EEFF8020400200
:4025C000FFF7AEFF80242402201CFFF7BDFF201CFFF796FF10BDC046000105402401054008B5064B1B78002B04D1FFF7DBFF0122024B1A70FFF7BEFF08BDC046E803002042
:402600008023014AD05070470000002010B5041CFFF7B4FA044A1368C0218B43A4011C431460FFF7AFFA10BD10E400E080225202014B1A607047C04600E100E080225202CC
:40264000014B1A607047C04680E100E010B5041CFFF7F4FF201CFFF7D3FF0320FFF7D6FFFFF7E4FF10BDC04680225202014B1A607047C04680E200E07F22014B1A70704741
:4026800080000F4008B5FFF779FA044A117820230B431370FFF776FA08BDC04690000F4008B5064B1B78002B04D1FFF7E5FF0122024B1A70FFF7E6FF08BDC046E903002003
:4026C000014B98647047C0460000002010B5041CFFF754FA044A1168044B0B40A4051C431460FFF74FFA10BD00E400E0FFFF3FFF0422014B1A60704700E100E00422014BCD
:402700001A60704780E100E010B5041CFFF7F6FF201CFFF7D5FF0320FFF7D8FFFFF7E8FF10BDC0460422014B1A60704780E200E0002243088B4274D303098B425FD3030A33
:402740008B4244D3030B8B4228D3030C8B420DD3FF22090212BA030C8B4202D31212090265D0030B8B4219D300E0090AC30B8B4201D3CB03C01A5241830B8B4201D38B03B5
:40278000C01A5241430B8B4201D34B03C01A5241030B8B4201D30B03C01A5241C30A8B4201D3CB02C01A5241830A8B4201D38B02C01A5241430A8B4201D34B02C01A524160
:4027C000030A8B4201D30B02C01A5241CDD2C3098B4201D3CB01C01A524183098B4201D38B01C01A524143098B4201D34B01C01A524103098B4201D30B01C01A5241C308AF
:402800008B4201D3CB00C01A524183088B4201D38B00C01A524143088B4201D34B00C01A5241411A00D20146524110467047FFE701B5002000F0FCF802BDC0460029F7D08E
:4028400003B5FFF775FF0EBC4243891A1847C04603460B437FD4002243088B4274D303098B425FD3030A8B4244D3030B8B4228D3030C8B420DD3FF22090212BA030C8B4212
:4028800002D31212090265D0030B8B4219D300E0090AC30B8B4201D3CB03C01A5241830B8B4201D38B03C01A5241430B8B4201D34B03C01A5241030B8B4201D30B03C01A10
:4028C0005241C30A8B4201D3CB02C01A5241830A8B4201D38B02C01A5241430A8B4201D34B02C01A5241030A8B4201D30B02C01A5241CDD2C3098B4201D3CB01C01A524160
:4029000083098B4201D38B01C01A524143098B4201D34B01C01A524103098B4201D30B01C01A5241C3088B4201D3CB00C01A524183088B4201D38B00C01A524143088B42C5
:4029400001D34B00C01A5241411A00D201465241104670475DE0CA0F00D04942031000D34042534000229C4603098B422DD3030A8B4212D3FC22890112BA030A8B420CD382
:40298000890192118B4208D3890192118B4204D389013AD0921100E08909C3098B4201D3CB01C01A524183098B4201D38B01C01A524143098B4201D34B01C01A524103094A
:4029C0008B4201D30B01C01A5241C3088B4201D3CB00C01A524183088B4201D38B00C01A5241D9D243088B4201D34B00C01A5241411A00D20146634652415B10104601D361
:402A00004042002B00D54942704763465B1000D3404201B5002000F00BF802BD0029F8D003B5FFF715FF0EBC4243891A1847C0467047C04638B500220C4B041C0D1C01F07A
:402A4000F9F9002804D1201C291C01F04DF938BD064B0022201C291C00F0CCFD01F044F980231B069C466044F1E7C0460000E041F0B5454657464E4694464C000A03C90F2A
:402A8000E0B488460E1C1903470FC500480A6146490F01436046520A1743C0005A00640D520DDB0F8446984500D1A7E0A01A002800DC01E1002A3DD163460B4300D0D4E03C
:402AC0006B0700D188E00F232B40042B00D183E02A1DAA42AD4180236D427F191B043B404646151C002B00D17CE0CC4B01349C4200D1FDE03A1CCA4BED081A40500764051F
:402B000052020543120B640D002112030B0D1B056405120B1A436308C24CF60714401C43640064083443281C211C1CBC90469946A246F0BDB94B9C42C2D080231B04194375
:402B4000382800DDECE01F2800DD21E120220E1C6346121A9640C340334366469640321C561EB24113430A1CC240EB1A9D42B6411D1CBA1A7642971B3B0200D497E07A028B
:402B8000560A002E00D1B6E0301C01F05DF9031C083B1F2B00DDB7E09E40371C28262A1C361AF240161C9D403E439C4200DDB2E01C1B621C1F2A00DDD8E01F23291C1C1BF8
:402BC000331CA540A340D1406C1EA541D64019430D43371C002473E780231B043B40464600D082E78D4BED0878070543FA089C4232D012036405120B640D85E7A31A002BD2
:402C000000DC94E0002A3CD0844A944200D157E7802212041143382B00DC05E163461943481E81410022C8B24019A8429B41051CD2195B42D7183B0239D5784B01349C4289
:402C400000D14CE10120764A6B083A4028401843D5070543570833E72B1C134348D080231B031A431203120B4EE70138002878D16346EE1AB5429B417A1A5B42D71A351C4D
:402C80007AE7021C0A4300D11AE7013B002B00D0F2E04019A8429B41CA195B42D718051CC9E7131C334300D118E1171C351C46466B0700D007E795E700287AD1621C52059B
:402CC000520D012A00DCFBE06246AA1A9542B6419146781A7242861A320200D493E06246551BAC458041CF1B40423E1A984648E70022002508E7281C01F0A6F82030031C0E
:402D0000083B1F2B00DC47E7283885402E1C00259C4200DC4CE7424AE41A1640371CCFE6634619434B1E99410022CBB21DE7002B00D0F2E0601C43055B0D012B00DCA4E023
:402D4000364B984200D121E163465C19AC429B41CF195B42FA186408D50725435708041CAEE62E4B9C4200D0EAE6A9E6211C331C1F39CB40191C202A00D182E03F231C1B23
:402D8000A64035436E1EB54100270D4300248EE7031C0E1C203BDE40202874D040231B1A99400B1C62461343591E8B4100223343DBE6002C50D0194CA24200D1A8E0802411
:402DC000240440422743382800DDD9E01F2800DD39E120243E1C241AA640B0462E1CA146C640444626434C46A5406C1EA541C74035436046451BCF1BAC45894149427F1A74
:402E0000141C9846B8E64B464D46334300D0B8E60026002700240025E4E6C046FF070000FFFF7FFFFFFF0F801F2B5BDC2022081CD21A9040814660469246D8404A46104386
:402E40008146524660469040021C501E8241484610430A1CDA40E7E63C1C2C4358D0C043002851D16046451BAC458041CF1B40423F1A141C98467FE68F4A944200D0CAE6E5
:402E80001EE600267DE700238CE73B1C2B43002C00D0BDE0002B00D1F5E063460B4300D10EE663465B19AB428041CA19404217183A0200D4FCE0814A1D1C17400134FFE544
:402EC0003A1C2A43002C51D1002A00D085E062460A4303D00F1C65469846F1E50026002700257FE6181C0A1C2038C240202B00D1A7E04020C01A8140081C63461843411E60
:402F00008841104300228FE66B4CA24200D05AE70F1C6546141C9846D2E5002C3AD1381C284371D0DB43002B18D0634882426BD0382B00DD9DE01F2B00DDA7E020203C1C82
:402F4000C01A8440A1462C1C8246DC404846044350468540681E8541DF402543654465459B417F185B42FF18141C64E6002A19D162460A4377D00F1C654698464E4C9FE587
:402F80003D436F1EBD410027EDB232E7041C0027002527E64848824236D0802000045B420743C5E762460A4349D08024ED087807FA0824032843224209D0CE08264206D111
:402FC00062464F07381CD20810439846321CD200470F1743C500384C72E562460A4300D16EE56246AE1AB5429241781A5242821A100200D455E66246551BAC458041CA1B1F
:403000004042171A98465BE50F1C6546141C57E5002B34D063460B4311D08024ED087807FA08240328432242D1D0CB082342CED162464F07381CD20810431A1CC7E71E4C21
:403040003EE5002059E7041C3E1C203CE640341C20282BD04026301A87403D436F1EBD4100272543C5E680270026FF03124C0025B8E53D436F1EBD410027EDB26EE70F1C42
:4030800065460D4C1CE50F1C654619E51C1C381C203CE040041C202B0CD04020C31A9F403D436F1EBD410027254357E70027D4E71D1CFCE50027F3E7FF070000FFFF7FFF75
:4030C000F0B55F4656464D464446F0B4051C061C080387B099464F00030BCC0F92469B467F0D019467D06C4B9F4236D080205B4640031843C0006B0F1843684B83469C460C
:4031000000239846EE00674400934B4649461D03C90F5B0052462D0B5B0D894600D16EE05D498B4264D080205C4940038C4600210543ED00500F0543D20063444846FF18AD
:403140007B1C9A46009B604002900B430F2B00D9ACE053489B00C3589F465B461D4300D082E00823009300239B46023300269846CBE7029B01934346022B59D101240025AD
:403180000026019B1C40444B00212D030A0D12052D0B1543434A1B0515401D436D00E4076D082543301C291C07B03CBC90469946A246AB46F0BD2B434ED05B46002B00D118
:4031C00085E1584600F040FE021C2823291C9B1A161C5846D940083EB0400B1CB54003439B462E1C0023304F0093BF1A98468CE7514629432ED10025002202219EE75146A7
:40320000294323D0002D00D154E1281C00F01CFE031C28215046C91A1A1CC8405146083A914095400A1C05431F480021C31A85E7032B00D1C2E1012B00D06DE14446019BBF
:4032400000251C40E4B2002300269DE700250022012173E7032171E70423009300239B4601330026984650E70C230093093B98464BE7802500242D030026074B84E74B467B
:40328000AB46161C0193884675E7029BAB46161C019388466FE7C046FF07000001FCFFFFAC4C0000FFFF0F800DFCFFFF330C3604360C9C46331C140C1204120C534398466E
:4032C000634653439946634663430193331C41466343090C4B445B18994505D9802040028146019949440191190C039141460904090C1B045B1804932B0C9846331C2D04FC
:40330000290C4B43604600934346654658435E43009B4D431B0C9946AE194E448446B54203D980235B029946CC44350C2B1C0398634484460593009B36041B041B0CF318B9
:403340009C446046039058460504060C280C84465043351C81466046654344434846000C8346724314195C44A24203D98022520293465D44220CAD184A461204120C240409
:403380004046A41862464A437143464360460096464670438046100C84468844E044414505D9802149028C46009961440091019803998446614499429B415B4299460598DD
:4033C000434684461204120C1B049B1863449C46AB4683429B4140460A19CC44A2428941E344CC45B6415C46000C8046494276425B426418334398448C428941AB459B413D
:4034000049425B4219430D1C009B4544EE187602E50D2E43B346049B56021E43731E9E415B46D20D324366021643DB010AD50123334076081E435B46DB071E435B465B084A
:403440009B465746634BFB18002B5ADD720709D00F223240042A05D0321DB242B6417642B344161C5A46D20106D55A465A4B1A4080239346DB00FB18584A934234DD012494
:40348000029B00251C400026554B7DE680205B460003034208D0054206D105432D032D0B4C46161C4E4B6FE65D4605432D032D0B4B4B69E6504600F0C7FC031C2033272B9F
:4034C00000DCA6E65546083885400022ACE6281C00F0BAFC021C2032272A00DC75E6083885400026AB467DE65A46F608520716435A4601245502029A5B052D0B5B0D144053
:4035000042E6384DED1B382D0ADD0124029B00251C400026002337E6019B5746029391E71F2D25DC304B321C9C466744BE405B46BB40371CEA407E1EB74113433B431E1C3F
:403540005B46EB401D1C730709D00F233340042B05D0331DB342B6417642AD191E1C2B0220D50124029B00251C40002601230BE65A461E4BDB1BDA40131C202D1CD01C4ACF
:4035800094465A466744BA40171C3E43721E96411E4307230025334007D00F2300253340042BD6D16B076D022D0B0124F6081E43029B1C400023E7E50027E6E780255B4678
:4035C00001242D031D43019B2D0323401C1C2D0B034BD9E5FF030000FFFFFFFEFE070000FF07000002FCFFFF1E040000E2FBFFFF3E040000F0B54D4644465F465646F0B481
:403600000E1C111C3203520A470F1743C5001A035800DB0F9946520A4B0F83B01A43CB000193CF4B7400F60F640DB046400D984200D1E8E00123494659400B1C9E4200D16C
:40364000B1E0261A002E00DC1CE1002842D1131C01990B4300D0E6E06B0700D18EE00F232B40042B00D189E02A1DAA42AD418023012641466D427F191B043B400E40151C01
:40368000002B00D183E0B64B01349C4200D116E13A1CB44BED081A405007640552020543120B640D002112030B0D1B056405120B1A436308AC4CF60714401C43640064080D
:4036C0003443281C211C03B03CBC90469946A246AB46F0BDA24B9C42BED080231B041A43382E00DD03E11F2E00DD3FE12020831B9946131C49468B409C46019B6046F34066
:4037000003430198F2408840011C481E81410B43EB1A9D4280411D1CBA1A4042171A3B0200D4A8E07A02560A002E00D1CAE0301C00F08AFB031C083B1F2B00DDCBE028225B
:40374000291C121AD1409E400A1C9D4032439C4200DDC8E01C1B671C1F2F00DDEDE01F23291C1C1B131CA540A340F9406C1EA541FA4019430D43171C00246DE780230126A3
:4037800042461B043B401640002B00D07BE7744BED0878070543FA089C423BD012036405120B640D7EE7231A9A46002B00DCA5E0002844D06A48844200D14DE78020000457
:4037C00002435346382B00DC1CE1019B1A43511E8A41D1B200224919A94280410D1CD219404217183B0246D55D4B01349C4200D169E101205B4A6B083A4028401843D50784
:403800000543570828E7131C01990B4300D111E74B4613E72B1C134351D080231B031A431203120B3EE7013E002E00D080E0691A8D429B41BA1A5B42D71A0D1C6FE7101C5C
:40384000019B184300D107E701235B429C46E2445346002B00D002E1019BD2195919A9429B415B42D7180D1CBCE76346034300D128E1071C65466B0700D0F0E601264346DB
:403880001E4084E7002E00D081E0601C4005400D012800DC07E10199681A84466545B641B81A7642861B300200D4A1E08C464D1BAC458941D21B4942561A984634E70022B4
:4038C0000025EFE6281C00F0BFFA2030031C083B1F2B00DC33E7021C283A95402A1C00259C4200DC36E71F4FE41A1740B4E6019B1A43511E8A41D3B2002209E7002B00D036
:4039000001E1601C43055B0D012B00DCB0E0144B984200D11EE1019BD2195919A9429B415B42D2184908D5070D435708041C93E60B4B9C4200D0D3E68EE6211C131C1F3927
:40394000CB40191C202F00D18EE03F231C1BA24015436A1E954100270D4300248BE7C046FF070000FFFF7FFFFFFF0F80331C101C203BD840202E79D040239B1B9A40131C7F
:40398000019A1343591E8B4100220343C0E6002C53D0C74CA04200D1B0E0802471428946240427434946382900DDCDE01F2900DD59E120243E1C611A8E408A46B046494653
:4039C0002E1CCE405146B4468D4064464646494626436C1EA541CF4035430199D71B8C464D1BAC4592415242BF1A041C984696E663466546334300D096E6002600270024F4
:403A00000025C4E61F2B61DC2020C31A9B46131C59468B4051469946019BCB409C464B46604603439C465B46019999406346481E814119435346DA40CDE63C1C2C435DD0A0
:403A4000F1438946002955D10199D21B8C464D1BAC4589414942571A041C98465FE69448844200D0ADE6F7E5002271E7002387E73B1C2B43002C00D0DAE0002B00D113E1E2
:403A8000131C01990B4300D1E6E54919A9429B41D2195B42D7183B0200D421E1854B0D1C1F40041CD8E5381C2843002C40D1002800D083E0101C0199084303D0171C0D1CD4
:403AC0009846C9E500260027002560E65046131C2038C340181C5346202B00D1C1E0402351465B1A9A40019911434A1E91410022014370E66E4CA04200D053E7171C019D34
:403B0000041C9846A8E5002C28D13C1C2C4300D18AE0DB439A46002B00D082E0019BD2199C4665449D42894149425718041C59E600285BD1101C0199084300D1A4E0171C77
:403B40000D1C98465A4C87E53D436F1EBD410027EDB242E7041C0027002518E6544CA04262D0534680245B429A46240427435346382B00DD8EE01F2B00DD9DE02024E31A9C
:403B80009B463B1C59468B40514699462B1CCB409C464B46644623439C465B469D4063466C1EA541CF401D43019BBF189C4665449D4292415242BF18041C13E6101C019936
:403BC000084300D148E5681A844685428041BE1A4042301A060200D447E68C464D1BAC458941D21B4942571A984635E5101C0199084334D080247807ED08FF08240328435F
:403C0000274208D0D608264205D1C90852070A43101C371C9846FF00420F1743C500244C1AE5234CA042A2D1171C019D041C13E5002B35D0131C01990B4310D0802478077E
:403C4000ED08FF08240328432742E4D0D3082342E1D1C90852070A43101C1F1CDBE7144CFAE400223FE74C463E1C203CE6404946341C202932D04026761AB7403D436F1EEF
:403C8000BD4100272543A8E680270026FF03084C00257CE53D436F1EBD410027EDB283E7171C019D024CD7E4171C019DD4E4C046FF070000FFFF7FFF54463B1C203CE340AA
:403CC0001C1C5346202B0DD0402351465B1A9F403D436F1EBD410027254365E70027CDE70D1CC8E50027F3E70B0330B5134C1A0B4B00051C5B0DC90F0020A34210DD104878
:403D000083420EDC80200F4C40030243E41A1F2C0ADD0D48C31ADA40131C48424340581830BD0A4BC818FBE7281CE040084CA44663449A40131C0343EFE7C046FE030000B0
:403D40001D0400003304000013040000FFFFFF7FEDFBFFFF38B5041E16D0C50F00D04442201C00F071F8174B1B1A0A2821DC021C211C153291400A1C0B21081AC4405B05AD
:403D80002403240B5B0D03E000250023002400220021101C24030A0D1205240B14430A4A1B0514401C436400ED0764082C43211C38BD0B3884405B052403240B5B0D0022D9
:403DC000E6E7C0461E040000FFFF0F808446101C62468C46191C634600E0C0461FB500F005F9002801D40021C8421FBD10B500F049F84042013010BD10B500F0F7F8002805
:403E000001DB002010BD012010BDC04610B500F0EDF8002801DD002010BD012010BDC04610B500F073F8002801DC002010BD012010BDC04610B500F069F8002801DA002005
:403E400010BD012010BDC0461C2101231B04984201D3000C10391B0A984201D3000A08391B09984201D30009043902A2105C40187047C04604030202010101010000000094
:403E800000000000F0B55F464D4644465646F0B41F035C00DB0F99461B4B0E034D00C90F8446360B6D0D8B4690463F0B640D9D420CD0154B9C4210D00123A54214D0181C95
:403EC0003CBC90469946A246AB46F0BD311C01230143F4D10C4B9C42EED13A430123002AEDD10123A542EAD1BE42E8D1C445E6D1CB4506D0002DE2D13043031C581E8341C7
:403F0000DDE70023DBE7C046FF070000F0B5574645464E46E0B40F034E00C90F8A4632491D035C0084463F0B760D90462D0B640DDB0F8E420FD08C4239D0002E10D13843C8
:403F4000414241418946002C27D12A4325D1002000290ED108E0391C01432ED1B44226D0002C0BD09A450DD05346594201231943081C1CBC90469946A246F0BD2A43F3D065
:403F80009A45F1D1A642EFDC1ADA504641424841012341421943081CEBE74A46002AE1D058425841012241421143081CE1E7291C114302D1002EC2D0D4E702204042D8E750
:403FC000AF42D1D809D00020AF42D2D2504641424841012340421843CBE7C445C4D80020C445F3D3C5E7C046FF070000F0B55F464D46444656468046F0B4061C0803000B53
:4040000084462C484C001F035D00C90F640D8B4691463F0B6D0DDB0F844212D0854225D0002C14D161460E4370424641002D35D0002E21D058425841012143420B43181C85
:404040000EE06146022031430AD1A5420ED0002D12D13A4310D15B46594201231943081C3CBC90469946A246AB46F0BD391C02201143F5D1002CD5D09B45ECD1AC42EADC41
:4040800005DBBC45E7D80FD00020BC45E8D2584641424841414201200843E1E73A43C7D10020002EDCD1D6E7C845D4D80020C845EDD3D5E7FF070000014B18687047C04687
:4040C000980300200E4B70B500251E1C0D4CE41AA410A54204D0AB00F35898470135F8E700F020FE084B00251E1C084CE41AA410A54204D0AB00F35898470135F8E770BDE0
:40410000304D0000304D0000304D0000384D0000002310B5934203D0CC5CC4540133F9E710BD031C8218934202D019700133FAE7704700000EB410B59DB002A902900861A3
:404140000B48822488604861012040421FABC881084804CBA400006801938C8100F074F80023029A13701DB010BC08BC03B01847FFFFFF7F980300200023C25C0133002A50
:40418000FBD1581E70470000F0B58E6885B0071C0C1C03920193B34245D390238A89DB001A423DD003250969236801985B1A029363695D43EB0F5D19029B6D1001331B1886
:4041C0009D4200D21D1C381C53050FD5291C00F01DFB061E13D0029A2169FFF799FFA289184B134080221343A38111E02A1C00F065FB061E0CD1381C216900F0C1FA0C2300
:40420000402201203B60A38940421343A38117E0029B2661F61826606561019EED1AA560019BB34200D2019E321C2068039900F092FA0020A3689B1BA36023689E1926607C
:4042400005B0F0BD7FFBFFFFF0B59FB0029005938B890E1C171C1B0610D50B69002B0DD1402100F0D3FA30603061002804D10C23029A01381360D0E040237361002306ADE2
:404280006B6120336B761033AB763C1C2378002B03D1E31B049312D003E0252BF9D00134F4E7049B0298311C3A1CFFF76DFF431C00D1ACE06A69049B944663446B612378D1
:4042C000002B00D1A3E00122002352426A6002A95432521801342B60EB60AB601370AB654F4F2178381C052200F02AFA002808D0C01B01278740381C2B68013418432860C8
:40430000EEE72B68DA0604D55322202102A8121811701A0704D553222B2102A81218117022782A2A01D0099B0EE0059A111D12680591002A01DB099204E05242EA6002228C
:4043400013432B60013409E02278303A092A04D80A214B4301349B18F6E7099323782E2B18D163782A2B09D1059B02341A1D1B680592002B0DDA01235B420AE000230134EE
:404380002278303A092A04D80A214B4301349B18F6E70793234F2178381C032200F0D0F9002807D0C01B40278740381C2B6801341843286021781C480622671C297600F057
:4043C000BFF9002812D0194B002B06D10722059B073393430833059314E005AB00930298291C321C124B00E000BF07E005AB00930298291C321C0E4B00F08AF80390039B36
:40440000013304D06B69039A9B186B613DE7B3890B985B0601D5012040421FB0F0BDC046EE4C0000F44C0000F84C00000000000089410000F7B5171C01930A698B68009034
:404440000C1C934200DA131C221C3B6043321278002A01D001333B6023689B0602D53B6802333B60062523681D401ED0231C43331B785A1E9341226892061CD53020E1182D
:404480004031C870211C5A1C45310978A21840320233D1700FE0221C0123009801991932089EB047431C0ED00135E3683A689B1A9D42F0DBDAE7221C009801994332089D92
:4044C000A847431C02D10120404220E006232068E1683A6803400025042B03D18D1AEB43DB171D40A3682269934201DD9B1AED180027AF420ADA221C0123009801991A32EE
:40450000089EB047431CDED00137F2E70020FEBDF0B58BB006920A1C43320793059004920A7E0C1C109B6E2A00D1A8E011D8632A22D009D8002A00D1B2E0582A00D0C2E0F7
:4045400045310A707C4A4FE0642A1DD0692A1BD0B9E0732A00D1A7E009D86F2A29D0702A00D0B0E0202209680A43226037E0752A1FD0782A33D0A6E00E1C1A684236111DBE
:40458000196013683370A1E021681A68080606D4490604D5111D19600023D55E02E0111D19601568002D3BDA2D23049A6D42137036E021681A68080606D4490604D51568B5
:4045C000111D1960ADB202E0111D196015685A4B227E03930A276F2A1DD108271BE0221C782145321170554A19680392081D226818600D68100602D4500600D5ADB2D30782
:4046000002D520231A4322601027002D03D1202322689A432260231C002243331A7002E00A27454B03936368A360002B03DB0422216891432160002D02D1049E002B0ED0FD
:40464000049E281C391CFEF7F9F8039B013E5B5C281C3370391CFEF76BF8051EF1D1082F09D12368DB0706D563682269934202DC3023013E3370049B9B1B23612BE0096820
:404680001A68080607D4490605D5111D19601368A28A1A8004E0111D1960136862691A600023049E236116E01A68111D196016680021301C626800F043F8002801D0801B57
:4046C0006060636803E0261C42363270012323610023049A1370079B05980093211C069B09AAFFF7A7FE431C02D10120404221E0236905980699321C079DA847431CF4D064
:4047000023689B0705D4099BE068984212DA181C10E00025E368099A9B1A9D42F3DA221C0123059806991932079EB047431CDCD00135EFE70BB0F0BDFF4C0000104D00007D
:40474000C9B28218904204D003788B4202D00130F8E70020704710B5814208D28B18984205D29B1A013A09D3995C8154FAE70023934203D0CC5CC4540133F9E710BD000064
:4047800030B500293ED004390B68002B00DAC9181D4A1368141C002B02D14B60116031E099420DD208680A189A4203D11368C3180B6053684B60216024E08A4203D8131C8C
:4047C0005A68002AF9D11D685C198C420BD10968691858181960904214D110685268091819605A600EE08C4202D90C23036009E008680C18944203D1146852680019086040
:404800004A60596030BDC046F0030020032370B5CC1C9C430834051C0C2C01D20C2405E0002C03DA0C2300202B6042E08C42F9D3204A1368101C191C002913D00A68121BF0
:404840000DD40B2A02D90A608B181FE08B4202D15A6802601BE04A685A600B1C17E00B1C4968E9E7144E3368002B03D1281C00F04BF83060281C211C00F046F8031C421C1B
:40488000D0D00322C61C964386420AD11C60181C07210B301A1D8843821A0AD05142995007E0311A281C00F02FF8431CBAD0331CECE770BDF0030020EC030020F8B5061C18
:4048C0000C1C151C002904D1111CFFF79FFF041C18E0002A03D1FFF753FF2C1C12E000F025F8A8420ED2301C291CFFF78FFF071E07D0211C2A1CFFF70BFC301C211CFFF721
:404900003FFF3C1C201CF8BD38B50023064C051C081C2360FDF720F8431C03D12368002B00D02B6038BDC046000400200B1F1A68101F002A04DA891804390B68D0180438FF
:40494000704700000000000025303564000000002534646D4100000025336400566F6C74616765202000000043757272656E74202000000042726967687420202000000076
:40498000566F6C746167653A0000000043757272656E743A0000000043206C696D69743A000000004252543A0000000053656C3A200000002532642E253032645600000048
:4049C00000300F40000280320F40800100400F400004000000320F40F04B00008000000002000F4047300F4029310F4004320F4048330F400E400F400F410F4006420F4003
:404A000010430F4002600F40807F820F06020C080E341014122B1501170218241A1B1B011C0D1E302F04303C33043403350237013A025602580459045B045C215D305F010F
:404A400080188104820284188504889C89018A038C1A90C19107923893389704981899569A029B099C339D049E44A01AA104A402A504A618A960AC82AD0AAF10B00FB108B4
:404A8000B4E0B57FB613B920BA22BF01D440D804D904DB04DC11DD10DF010044040A0518060209A20D020E06150116011704184419021DB21E0A1F02221823012510274074
:404AC00028022D082E022F0A32183530364137043D213E046504666073408D10C0F5C2DBC4B0CAF8CCF6CEE0D870E610D409DB04DD10DF010406060207040D820E081505D3
:404B00001C141D412408250826A02D212F12310C36A1370438103A103E063F80458246104D284E02540156615748582059095B40614065026C016D056E846F0476028421EA
:404B4000864087108A028C04940A9501960499229B409D049E639F04A182A205A302A640A708AB01B340B406C0F0C2D0C430CAF0CCF0CED0D0D0D230D60FD888E201E6407C
:404B8000EA20EE402C20501054025B805C0169026C2077048C01CA80D4A0D6A0DA80DC600140054049404D4083808C1094209F80AB04B101B402C0C0D230E280EA80052022
:404BC00060016B02C001D602DA02072018011C081E10540482108B209401B302B520C004C607D402E604E804EA08010E100E000000CD10000ECD0000100000001000008078
:404C000025010A32008D0040241009602302040D10CD0000104D00800072000800120064100010800F70200F200000A00000450446013000050EFDCB3DFFFFFF2200F008CB
:404C4000040000000000022C04040404111100010000C00040011011C00100114001400100000000000000000000000000000000030405060708090A0B0C0E0F10111213AB
:404C80001415161718191B1C1D1E1F2021222325262728292A2B2E2F3031323334350000000600000006000000010000AC3200008A3200008A3200007E32000072310000FC
:404CC00072310000723200007E3200007231000072320000723100007E3200007631000076310000763100008C3400004300232D302B2000686C4C0065666745464700300C
:404D0000313233343536373839414243444546003031323334353637383961626364656600000000F8B5C046F8BC08BC9E467047ED130000D1190000F8B5C046F8BC08BCC4
:404D40009E467047C5130000584D0000D0000020D002000068000000000000000100000000000000000000005F000000000700070000147F147F1400242A7F2A120023130A
:404D800008646200364955225000000503000000001C224100000041221C000014083E08140008083E0808000050300000000808080808000060600000002010080402005F
:404DC0003E5149453E0000427F4000004261514946002141454B31001814127F10002745454539003C4A49493000017109050300364949493600064949291E000036360058
:404E00000000005636000000081422410000141414141400004122140800020151090600324979413E007E1111117E007F49494936003E41414122007F4141221C007F49C5
:404E4000494941007F09090901003E4149497A007F0808087F0000417F4100002040413F01007F08142241007F40404040007F020C027F007F0408107F003E4141413E005D
:404E80007F09090906003E4151215E007F091929460046494949310001017F0101003F4040403F001F2040201F003F4038403F006314081463000708700807006151494528
:404EC0004300007F414100000204081020000041417F00000402010204004040404040000001020400002054545478007F4844443800384444442000384444487F00385489
:404F000054541800087E090102000C5252523E007F080404780000447D4000002040443D00007F102844000000417F4000007C04180478007C0804047800384444443800A7
:404F40007C1414140800081414187C007C0804040800485454542000043F444020003C4040207C001C2040201C003C4030403C004428102844000C5050503C004464544C2E
:404F8000440000083641000000007F000000004136080000100808100800784641467800E0015A00BA010080080400200000E02EC05D00001800000000366E0104040400A5
:404FC0000000000000000000000000000000000000000000000000000000000000000000EC4C00000000000000000000000000000000000000000000000000000000000079
:405000000000000000000000000000000000000000000000000000000000000000000000380300200000000000000000000000000000000000000000000000000000000015
:405040000000000000000000000000000000000000000000000000000000000000000000000000000000000000000000000000000000000000000000000000000000000030
:4050800000000000000000000000000000000000000000000000000000000000000000000000000000000000000000000000000000000000000000000000000000000000F0
:4050C00000000000000000000000000000000000000000000000000000000000000000000000000000000000000000000000000000000000000000000000000000000000B0
:40510000000000000000000000000000000000000000000000000000000000000000000000000000000000000000000000000000000000000000000000000000000000006F
:407FC000281111000021000000803F000000000000000100000000000000000000000000000000000000000000000000000000000000000000000000000000000000000056
:0200000490303A
:02000000F49377
:0200000490402A
:20000000FFFFFFFF00000000000000000000000000000000000000000000000000000000E4
:0200000490501A
:0C000000000204C81193110004E206265F
:0200000490600A
:0100000001FE
:00000001FF